:1000000037C0000050C000004EC000004CC00000CF
:100010004AC0000048C0000046C0000044C00000C4
:1000200042C0000040C000003EC000003CC00000D4
:100030003AC0000038C0000036C0000034C00000E4
:1000400032C0000030C000002EC0000078C00000A8
:100050002AC0000028C0000026C0000024C0000004
:1000600022C0000020C000001EC000001CC0000014
:1000700011241FBECFEFD4E0DEBFCDBF12E0A0E061
:10008000B1E0E0EDFCE002C005900D92AA3DB107A1
:10009000D9F722E0AAEDB2E001C01D92A63EB20758
:1000A000E1F77CD113C6ACCF32D080EC2BD031C07D
:1000B00008952DD080E426D02CC00895CF93C82F6A
:1000C00026D083E01FD08C2F1DD08FEF1BD0C82FE0
:1000D00020D08C2FCF910895CF93DF93D82FC62FA8
:1000E00016D082E00FD08D2F0DD08C2F0BD011D0D9
:1000F000DF91CF91089587B3806B87BBBE9881E570
:100100008DB908958FB9779BFECF8FB10895C498AC
:100110000895C49A08955D9BFECF8CB908955998AF
:100120008FE189B910BC88E18AB98EEA80BD60E0B0
:1001300070E08BE890E081D2579A789408951F92EE
:100140000F920FB60F9211248F938CB18093DA0225
:100150008F910F900FBE0F901F90189580E885BF6C
:1001600016BE80E280BF0895CF92DF92EF92FF9299
:100170000F931F93CF93DF9386E091E0B9D200E015
:1001800010E0C0E0D0E00F2EFDE1EF2EF1E0FF2EF9
:10019000F02D8C2F8095FE01F85E8083908198175A
:1001A000A1F090811F928F931F929F93DF93CF9323
:1001B000FF92EF928CD20F5F1F4F8DB79EB70896BC
:1001C0000FB6F8949EBF0FBE8DBF2196C11598E063
:1001D000D907F9F6E12CF12CC0E0D0E00F2EFDE5B7
:1001E000CF2EF1E0DF2EF02D8C2F8095FE01F85EF2
:1001F00090818917A9F090811F928F931F929F93EE
:10020000DF93CF93DF92CF9262D28FEFE81AF80A92
:100210008DB79EB708960FB6F8949EBF0FBE8DBFE0
:100220002196C11598E0D907F9F6FF92EF921F9336
:100230000F938CE991E09F938F9349D20F900F9089
:100240000F900F900F900F90DF91CF911F910F9112
:10025000FF90EF90DF90CF900895BF92CF92DF9202
:10026000EF92FF920F931F93CF93DF938CEE91E069
:100270003FD280E490E0BAD07C01FF928F931F922E
:1002800080E48F9387E092E09F938F9320D20F902A
:100290000F900F900F900F900F90F70180E0119248
:1002A0008F5F8034E1F758C0F80181918F011F9270
:1002B0008F93DF93CF930BD20F900F900F900F90EF
:1002C0008B2D8F708F3019F481EA92E011D2B394A4
:1002D000E0E4BE12E9CFFF92EF921F9280E48F9389
:1002E00084E492E09F938F93F2D10F900F900F9040
:1002F0000F900F900F90F70180E081938F5F803413
:10030000E1F718C0F80181918F011F928F93DF935D
:10031000CF93DDD10F900F900F900F908F2D8F7096
:100320008F3019F481EA92E0E3D1F394E0E4FE1215
:10033000E9CF25C0F70180811F928F938EE392E071
:100340009F938F93C4D10F900F900F900F908601C1
:10035000F12CCEE3D2E0E9CFF70181916F011F923A
:100360008F938EE392E09F938F93B1D10F900F9074
:100370000F900F908601B12CCEE3D2E0A8CFDF9191
:10038000CF911F910F91FF90EF90DF90CF90BF9092
:100390000895985EFC01808190E00895DFDEBFDE65
:1003A000E3DE5BDF85E090E0F4DF9F938F938CECDE
:1003B00092E09F938F938BD19EDE76DE7ADE6DED99
:1003C00080E08ADE80E07ADE1F928F9385ED92E0F6
:1003D0009F938F937CD18DB79EB708960FB6F894F4
:1003E0009EBF0FBE8DBF80E090E00895CF93DF9356
:1003F0008230910510F482E090E0E091DE02F0910D
:10040000DF0220E030E0A0E0B0E0309739F1408139
:10041000518148175907B8F04817590771F482817C
:100420009381109729F013969C938E9312972CC06A
:100430009093DF028093DE0227C02115310531F051
:100440004217530718F0A901DB0101C0EF019A011F
:10045000BD01DF010280F381E02DD7CF21153105E9
:10046000F9F0281B390B2430310580F48A819B81F7
:100470006115710521F0FB019383828304C0909381
:10048000DF028093DE02FE01329644C0FE01E20FDD
:10049000F31F8193919322503109398328833AC005
:1004A0002091DC023091DD02232B41F420910201E6
:1004B000309103013093DD022093DC022091000192
:1004C000309101012115310541F42DB73EB740911E
:1004D000040150910501241B350BE091DC02F091E1
:1004E000DD02E217F307A0F42E1B3F0B2817390794
:1004F00078F0AC014E5F5F4F2417350748F04E0F80
:100500005F1F5093DD024093DC028193919302C000
:10051000E0E0F0E0CF01DF91CF910895CF93DF933A
:10052000009709F487C0FC01329713821282C091B0
:10053000DE02D091DF02209781F420813181280FE3
:10054000391F8091DC029091DD028217930779F5C3
:10055000F093DD02E093DC026DC0DE0120E030E0CC
:10056000AE17BF0750F412964D915C9113979D0101
:100570004115510509F1DA01F3CFB383A28340811C
:100580005181840F951F8A179B0771F48D919C915F
:100590001197840F951F02969183808312968D91F7
:1005A0009C911397938382832115310529F4F0934D
:1005B000DF02E093DE023EC0D9011396FC93EE9376
:1005C00012974D915D91A40FB51FEA17FB0779F4BF
:1005D00080819181840F951F0296D90111969C9379
:1005E0008E938281938113969C938E931297E0E071
:1005F000F0E08A819B81009719F0FE01EC01F9CFB0
:10060000CE01029628813981820F931F2091DC024E
:100610003091DD022817390769F4309729F41092D8
:10062000DF021092DE0202C013821282D093DD023A
:10063000C093DC02DF91CF9108950F931F93CF9366
:10064000DF93EC018B01009731F46115710519F40A
:1006500080E090E037C06EE070E081E090E038D25A
:10066000FC010097A9F380E883830115110571F05F
:100670001387028781E883838091E0029091E102F1
:10068000892B21F4F093E102E093E0022097C9F076
:10069000D187C0878381826083838091E2029091B9
:1006A000E302892B71F4F093E302E093E20280917C
:1006B000E4029091E502892B21F4F093E502E093A6
:1006C000E402CF01DF91CF911F910F910895A0E037
:1006D000B0E0ECE6F3E0D3C2FE0135966191719192
:1006E000AF018091E2029091E3022FD0E2E0E3C2F9
:1006F0000F931F93CF93DF93E091E202F091E30217
:10070000238121FF1BC0EC0100E010E08991609182
:10071000E2027091E302DB011896ED91FC911997CA
:10072000882331F00995892B89F30FEF1FEFEECF66
:100730008AE00995892B11F4C80102C08FEF9FEF61
:10074000DF91CF911F910F910895ACE0B0E0EAEAFC
:10075000F3E085C27C016B018A01FC0117821682DD
:10076000838181FFB0C1CE0101964C01F7019381D5
:10077000F60193FD859193FF81916F01882309F420
:100780009EC1853239F493FD859193FF81916F016C
:10079000853221F4B70190E0D2D1E8CF512C312C31
:1007A00020E02032A0F48B3269F030F4803259F02E
:1007B000833269F420612CC08D3239F0803339F4F2
:1007C000216026C02260246023C0286021C027FD4C
:1007D00027C030ED380F3A3078F426FF06C0FAE033
:1007E0005F9E300D1124532E13C08AE0389E300DC9
:1007F0001124332E20620CC08E3221F426FD5FC1FD
:10080000206406C08C3611F4206802C0883641F49A
:10081000F60193FD859193FF81916F018111C1CF05
:10082000982F9F7D9554933028F40C5F1F4FFFE362
:10083000F9830DC0833631F0833771F0833509F0C9
:1008400057C021C0F801808189830E5F1F4F442467
:100850004394512C540114C03801F2E06F0E711C06
:10086000F801A080B18026FF03C0652D70E002C0B2
:100870006FEF7FEFC5012C8757D12C0183012C85A9
:100880002F77222E16C03801F2E06F0E711CF8018E
:10089000A080B18026FF03C0652D70E002C06FEF1D
:1008A0007FEFC5012C872ED12C012C852068222EAC
:1008B000830123FC19C0832D90E048165906A0F44B
:1008C000B70180E290E03BD13A94F5CFF50127FCE7
:1008D000859127FE81915F01B70190E030D1311001
:1008E0003A94F1E04F1A51084114510479F7DEC0EF
:1008F000843611F0893631F5F80127FF07C0608191
:100900007181828193810C5F1F4F08C0608171816A
:10091000882777FD8095982F0E5F1F4F2F76B22E78
:1009200097FF09C090958095709561957F4F8F4F87
:100930009F4F2068B22E2AE030E0A40132D1A82EC9
:10094000A81843C0853729F42F7EB22E2AE030E064
:1009500025C0F22FF97FBF2E8F36C1F018F48835ED
:1009600079F0ADC0803719F0883721F0A8C02F2F5B
:100970002061B22EB4FE0DC08B2D8460B82E09C04C
:1009800024FF0AC09F2F9660B92E06C028E030E0F1
:1009900005C020E130E002C020E132E0F801B7FEFE
:1009A00007C060817181828193810C5F1F4F06C0F7
:1009B0006081718180E090E00E5F1F4FA401F1D053
:1009C000A82EA818FB2DFF77BF2EB6FE0BC02B2D2F
:1009D0002E7FA51450F4B4FE0AC0B2FC08C02B2D23
:1009E0002E7E05C07A2C2B2D03C07A2C01C0752CCD
:1009F00024FF0DC0FE01EA0DF11D8081803311F44A
:100A0000297E09C022FF06C07394739404C0822F0C
:100A1000867809F0739423FD12C020FF06C05A2C7B
:100A2000731418F4530C5718732C731460F4B70133
:100A300080E290E02C8783D073942C85F6CF7314DA
:100A400010F4371801C0312C24FF11C0B70180E326
:100A500090E02C8774D02C8522FF16C021FF03C0A4
:100A600088E590E002C088E790E0B7010CC0822FD3
:100A7000867851F021FD02C080E201C08BE227FDA3
:100A80008DE2B70190E05BD0A51430F4B70180E3AC
:100A900090E055D05A94F8CFAA94F401EA0DF11DD4
:100AA0008081B70190E04BD0A110F6CF332009F43C
:100AB0005DCEB70180E290E042D03A94F7CFF701E3
:100AC0008681978102C08FEF9FEF2C96E2E1E3C011
:100AD0000F931F93CF93DF93869F8001879F100D05
:100AE000969F100D1124C80181DCEC01009721F0C4
:100AF000A80160E070E011D0CE01DF91CF911F918D
:100B00000F910895FC010590615070400110D8F7D5
:100B1000809590958E0F9F1F0895DC0101C06D9305
:100B200041505040E0F70895FC0161507040019041
:100B30000110D8F7809590958E0F9F1F08950F9301
:100B40001F93CF93DF93182F092FEB018B8181FD2A
:100B500003C08FEF9FEF20C082FF10C04E815F81E6
:100B60002C813D81421753077CF4E881F9819F0174
:100B70002F5F3F4F39832883108306C0E885F985AE
:100B8000812F0995892B29F72E813F812F5F3F4FB8
:100B90003F832E83812F902FDF91CF911F910F9153
:100BA0000895FA01AA27283051F1203181F1E89403
:100BB0006F936E7F6E5F7F4F8F4F9F4FAF4FB1E050
:100BC0003ED0B4E03CD0670F781F891F9A1FA11D4B
:100BD000680F791F8A1F911DA11D6A0F711D811D4C
:100BE000911DA11D20D009F468943F912AE0269F11
:100BF00011243019305D3193DEF6CF010895462F70
:100C00004770405D4193B3E00FD0C9F7F6CF462F50
:100C10004F70405D4A3318F0495D31FD40524193B9
:100C200002D0A9F7EACFB4E0A69597958795779576
:100C30006795BA95C9F700976105710508959B01FD
:100C4000AC010A2E06945795479537952795BA9586
:100C5000C9F7620F731F841F951FA01D08952F925F
:100C60003F924F925F926F927F928F929F92AF923C
:100C7000BF92CF92DF92EF92FF920F931F93CF9389
:100C8000DF93CDB7DEB7CA1BDB0B0FB6F894DEBF20
:100C90000FBECDBF09942A88398848885F846E8446
:100CA0007D848C849B84AA84B984C884DF80EE8090
:100CB000FD800C811B81AA81B981CE0FD11D0FB699
:100CC000F894DEBF0FBECDBFED010895F894FFCFBD
:100CD0000000E60220005374617274696E67205848
:100CE0004D454D20746573742E2E2E0D00584D45C4
:100CF0004D206572726F722028777269746520705A
:100D000068617365293A206578745F72616D5B254F
:100D1000645D203D2025303258202873686F756C43
:100D2000642062652025303258290D0A00584D454F
:100D30004D206572726F7220287265616420706840
:100D4000617365293A206578745F72616D5B256413
:100D50005D203D2025303258202873686F756C6403
:100D60002062652025303258290D0A00584D454D26
:100D7000207465737420636F6D706C657465642096
:100D800077697468202564206572726F72732069B8
:100D90006E20777269746520706861736520616E7A
:100DA00064202564206572726F727320696E2072F0
:100DB0006561642070686173650D0A000D0A4578ED
:100DC0007465726E616C204D656D6F727920457827
:100DD000616D706C650D0025642042797465206238
:100DE000756666657220287374617274696E672017
:100DF000617420307825303458292066696C6C6520
:100E0000642077697468203027733A0D0A00253012
:100E1000325820000D0A25642042797465206275DD
:100E20006666657220287374617274696E672061EA
:100E30007420307825303458292066696C6C6564DC
:100E4000207769746820696E6372656D656E746978
:100E50006E67206E756D626572733A0D0A00584DAB
:100E6000454D204F4B0D00584D454D204641494CB6
:100E7000210D00486561702046756C6C0D00486559
:100E800061702054657374204F4B0D00486561708C
:100E90002054657374204661696C0D000A0D30782A
:0A0EA00025303278000A0D256400A9
:00000001FF
