S01900004C616245786330332D4A6F79737469636B2E73726563FC
S113000037C0000051C000004FC000004DC00000C8
S11300104BC0000049C0000047C0000045C00000BC
S113002043C0000041C000003FC000003DC00000CC
S11300303BC0000039C0000037C0000035C00000DC
S113004033C0000031C000002FC000000DC100000B
S11300502BC0000029C0000027C0000025C00000FC
S113006023C0000021C000001FC000001DC000000C
S113007011241FBECFEFD4E0DEBFCDBF13E0A0E05C
S1130080B1E0ECEAF1E102C005900D92A237B107AC
S1130090D9F723E0A2E7B3E001C01D92AA38B20762
S11300A0E1F726D20C94D408ABCF843060F484609A
S11300B08093001481E48A95F1F700C02899FECF5B
S11300C080910014089580E008951F93CF93DF93E7
S11300D0EC0180E0EADF182F81E0E7DF18838983F1
S11300E01A838B83CE01DF91CF911F91089586E00F
S11300F091E09F938F9359D50F900F90C4D0893777
S1130100E9F780E0D2DF8093720381E0CEDF809351
S113011073038AE291E09F938F9347D50F900F90DA
S1130120B2D08937E9F781E0C0DF8093740388E3B4
S113013091E09F938F9339D50F900F90A4D0893776
S1130140E9F781E0B2DF8093750386E491E09F9341
S11301508F932BD50F900F9096D08937E9F780E0D5
S1130160A4DF8093760384E591E09F938F931DD55C
S11301700F900F9088D08937E9F780E096DF80935D
S113018077030895CF92DF92EF92FF921F93CF935C
S1130190DF93162FC82FD0E050E0BA016C1B7D0B03
S11301A0882777FD8095982FA0D26B017C01612F61
S11301B070E06C1B7D0B882777FD8095982F95D276
S11301C09B01AC0160E070E088EC92E4F3D19B0108
S11301D0AC01C701B60115D355D2862FDF91CF915B
S11301E01F91FF90EF90DF90CF900895CF93DF930E
S11301F0482FEB0180917303841728F460917503F1
S1130200C1DF888305C060917403BCDF8195888356
S1130210DF91CF910895CF93DF93482FEB01809125
S11302207203841728F460917703ACDF888305C0D8
S113023060917603A7DF81958883DF91CF9108953C
S11302405D9BFECF8CB9089559988FE189B910BC94
S113025088E18AB98EEA80BD60E070E080E291E0D6
S11302605AD4579A789408951F920F920FB60F920A
S113027011248F938CB180937E038F910F900FBEC6
S11302800F901F901895EEE7F3E0808180937F0331
S113029010820895CF93DF93EC018881882329F09D
S11302A02196CEDF89918111FCCFDF91CF91089502
S11302B080E885BF16BE80E280BF0895CF92DF92AA
S11302C0EF92FF920F931F93CF93DF9382E691E017
S11302D07DD400E010E0C0E0D0E00F2EF9E7EF2E6F
S11302E0F1E0FF2EF02D8C2F8095FE01F85E8083C7
S11302F090819817A1F090811F928F931F929F93E2
S1130300DF93CF93FF92EF9250D40F5F1F4F8DB7BF
S11303109EB708960FB6F8949EBF0FBE8DBF219668
S1130320C11598E0D907F9F6E12CF12CC0E0D0E032
S11303300F2EF9EBCF2EF1E0DF2EF02D8C2F8095D0
S1130340FE01F85E90818917A9F090811F928F9326
S11303501F929F93DF93CF93DF92CF9226D48FEF98
S1130360E81AF80A8DB79EB708960FB6F8949EBFA0
S11303700FBE8DBF2196C11598E0D907F9F6FF92FB
S1130380EF921F930F9388EF91E09F938F930DD477
S11303900F900F900F900F900F900F90DF91CF91CF
S11303A01F910F91FF90EF90DF90CF900895BF922F
S11303B0CF92DF92EF92FF920F931F93CF93DF932D
S11303C088E492E003D480E490E07ED27C01FF9242
S11303D08F931F9280E48F9383E692E09F938F9391
S11303E0E4D30F900F900F900F900F900F90F701A0
S11303F080E011928F5F8034E1F758C0F801819159
S11304008F011F928F93DF93CF93CFD30F900F90D1
S11304100F900F908B2D8F708F3019F486E391E03D
S1130420D5D3B394E0E4BE12E9CFFF92EF921F92CA
S113043080E48F9380EA92E09F938F93B6D30F90DA
S11304400F900F900F900F900F90F70180E0819321
S11304508F5F8034E1F718C0F80181918F011F92FA
S11304608F93DF93CF93A1D30F900F900F900F90A2
S11304708F2D8F708F3019F486E391E0A7D3F39416
S1130480E0E4FE12E9CF25C0F70180811F928F932B
S11304908AE992E09F938F9388D30F900F900F90E7
S11304A00F908601F12CCAE9D2E0E9CFF7018191DE
S11304B06F011F928F938AE992E09F938F9375D374
S11304C00F900F900F900F908601B12CCAE9D2E0E3
S11304D0A8CFDF91CF911F910F91FF90EF90DF9004
S11304E0CF90BF900895985EFC01808190E00895BC
S11304F0CF93DF9300D0CDB7DEB7DADEA5DEDEDE44
S113050056DF85E090E0EFDF9F938F9388E293E0DE
S11305109F938F934AD384E090E0D6D18C0180E0FE
S1130520C4DD81E0C2DD81E393E0B4DEE0DD1A8264
S11305300F900F900F900F900F2EFFE3EF2EF3E02C
S1130540FF2EF02DC801C1DD8C0180E0AEDDD82E78
S113055081E0ABDDBE016F5F7F4F48DEBE016E5FA1
S11305607F4F8D2D58DEF80183811F928F938281F6
S11305701F928F932981822F992787FD90959F93AE
S11305802F932A81822F992787FD90959F932F93EC
S1130590FF92EF920AD3FFEF2FE382E0F150204065
S11305A08040E1F700C000000FB6F894DEBF0FBE34
S11305B0CDBFC8CF0CD0EBC0E3D040F0DAD030F0E0
S11305C021F45F3F19F0CCC0511115C1CFC0F0D058
S11305D098F39923C9F35523B1F3951B550BBB2706
S11305E0AA2762177307840738F09F5F5F4F220FB3
S11305F0331F441FAA1FA9F333D00E2E3AF0E0E8AC
S113060030D091505040E695001CCAF729D0FE2FF7
S113061027D0660F771F881FBB1F26173707480789
S1130620AB07B0E809F0BB0B802DBF01FF2793583F
S11306305F4F2AF09E3F510568F092C0DCC05F3FD7
S1130640ECF3983EDCF3869577956795B795F79527
S11306509F5FC9F7880F911D9695879597F908951F
S1130660E1E0660F771F881FBB1F621773078407BB
S1130670BA0720F0621B730B840BBA0BEE1F88F7CA
S1130680E095089504D06894B111B5C0089598D048
S113069088F09F5790F0B92F9927B751A0F0D1F067
S11306A0660F771F881F991F1AF0BA95C9F712C0F1
S11306B0B13081F09FD0B1E008959CC0672F782FAE
S11306C08827B85F39F0B93FCCF38695779567955D
S11306D0B395D9F73EF490958095709561957F4FC9
S11306E08F4F9F4F0895E89409C097FB3EF490956F
S11306F08095709561957F4F8F4F9F4F9923A9F0F7
S1130700F92F96E9BB279395F69587957795679585
S1130710B795F111F8CFFAF4BB0F11F460FF1BC0C9
S11307206F5F7F4F8F4F9F4F16C0882311F096E95C
S113073011C0772321F09EE8872F762F05C066230A
S113074071F096E8862F70E060E02AF09A95660FC3
S1130750771F881FDAF7880F9695879597F908957C
S113076097F99F6780E870E060E008959FEF80EC60
S1130770089500240A941616170618060906089503
S113078000240A9412161306140605060895092E69
S11307900394000C11F4882352F0BB0F40F4BF2BD8
S11307A011F460FF04C06F5F7F4F8F4F9F4F089518
S11307B057FD9058440F551F59F05F3F71F047950E
S11307C0880F97FB991F61F09F3F79F087950895F3
S11307D0121613061406551FF2CF4695F1DF08C012
S11307E0161617061806991FF1CF8695710561052F
S11307F008940895E894BB2766277727CB0197F9D7
S113080008950BD0C4CFB5DF28F0BADF18F09523D4
S113081009F0A6CFABCF1124EECFCADFA0F3959F8A
S1130820D1F3950F50E0551F629FF001729FBB27D3
S1130830F00DB11D639FAA27F00DB11DAA1F649F7F
S11308406627B00DA11D661F829F2227B00DA11D32
S1130850621F739FB00DA11D621F839FA00D611DB8
S1130860221F749F3327A00D611D231F849F600DD9
S1130870211D822F762F6A2F11249F5750408AF012
S1130880E1F088234AF0EE0FFF1FBB1F661F771F9E
S1130890881F91505040A9F79E3F510570F060CFDA
S11308A0AACF5F3FECF3983EDCF386957795679586
S11308B0B795F795E7959F5FC1F7FE2B880F911DBC
S11308C09695879597F90895CF93DF938230910594
S11308D010F482E090E0E0918203F091830320E041
S11308E030E0A0E0B0E0309739F140815181481701
S11308F05907B8F04817590771F48281938110970A
S113090029F013969C938E9312972CC09093830393
S11309108093820327C02115310531F04217530714
S113092018F0A901DB0101C0EF019A01BD01DF014B
S11309300280F381E02DD7CF21153105F9F0281B72
S1130940390B2430310580F48A819B81611571054E
S113095021F0FB019383828304C0909383038093EB
S11309608203FE01329644C0FE01E20FF31F81931D
S1130970919322503109398328833AC0209180030E
S113098030918103232B41F4209102013091030122
S11309903093810320938003209100013091010161
S11309A02115310541F42DB73EB740910401509112
S11309B00501241B350BE0918003F0918103E217BC
S11309C0F307A0F42E1B3F0B2817390778F0AC016E
S11309D04E5F5F4F2417350748F04E0F5F1F50934B
S11309E08103409380038193919302C0E0E0F0E09F
S11309F0CF01DF91CF910895CF93DF93009709F44E
S1130A0087C0FC01329713821282C0918203D09175
S1130A108303209781F420813181280F391F80912D
S1130A208003909181038217930779F5F0938103F2
S1130A30E09380036DC0DE0120E030E0AE17BF0715
S1130A4050F412964D915C9113979D0141155105F7
S1130A5009F1DA01F3CFB383A28340815181840F7A
S1130A60951F8A179B0771F48D919C911197840FA0
S1130A70951F02969183808312968D919C91139772
S1130A80938382832115310529F4F0938303E09342
S1130A9082033EC0D9011396FC93EE9312974D91B5
S1130AA05D91A40FB51FEA17FB0779F4808191814A
S1130AB0840F951F0296D90111969C938E9382817F
S1130AC0938113969C938E931297E0E0F0E08A81D1
S1130AD09B81009719F0FE01EC01F9CFCE0102963B
S1130AE028813981820F931F2091800330918103E3
S1130AF02817390769F4309729F410928303109268
S1130B00820302C013821282D0938103C0938003B4
S1130B10DF91CF9108950F931F93CF93DF93EC014F
S1130B208B01009731F46115710519F480E090E0B0
S1130B3037C06EE070E081E090E038D2FC010097AD
S1130B40A9F380E883830115110571F013870287E7
S1130B5081E883838091840390918503892B21F418
S1130B60F0938503E09384032097C9F0D187C0876D
S1130B708381826083838091860390918703892B8C
S1130B8071F4F0938703E093860380918803909136
S1130B908903892B21F4F0938903E0938803CF011F
S1130BA0DF91CF911F910F910895A0E0B0E0EAED9D
S1130BB0F5E0D3C2FE01359661917191AF01809148
S1130BC08603909187032FD0E2E0E3C20F931F9333
S1130BD0CF93DF93E0918603F0918703238121FF74
S1130BE01BC0EC0100E010E08991609186037091D4
S1130BF08703DB011896ED91FC911997882331F056
S1130C000995892B89F30FEF1FEFEECF8AE0099541
S1130C10892B11F4C80102C08FEF9FEFDF91CF91B0
S1130C201F910F910895ACE0B0E0E8E1F6E085C2D1
S1130C307C016B018A01FC0117821682838181FF8A
S1130C40B0C1CE0101964C01F7019381F60193FDE9
S1130C50859193FF81916F01882309F49EC18532A8
S1130C6039F493FD859193FF81916F01853221F4CD
S1130C70B70190E0D2D1E8CF512C312C20E02032C2
S1130C80A0F48B3269F030F4803259F0833269F485
S1130C9020612CC08D3239F0803339F4216026C0B4
S1130CA02260246023C0286021C027FD27C030EDC6
S1130CB0380F3A3078F426FF06C0FAE05F9E300D14
S1130CC01124532E13C08AE0389E300D1124332E84
S1130CD020620CC08E3221F426FD5FC1206406C060
S1130CE08C3611F4206802C0883641F4F60193FD75
S1130CF0859193FF81916F018111C1CF982F9F7DC1
S1130D009554933028F40C5F1F4FFFE3F9830DC013
S1130D10833631F0833771F0833509F057C021C031
S1130D20F801808189830E5F1F4F44244394512C22
S1130D30540114C03801F2E06F0E711CF801A08058
S1130D40B18026FF03C0652D70E002C06FEF7FEF16
S1130D50C5012C8757D12C0183012C852F77222E96
S1130D6016C03801F2E06F0E711CF801A080B1804A
S1130D7026FF03C0652D70E002C06FEF7FEFC50151
S1130D802C872ED12C012C852068222E830123FC54
S1130D9019C0832D90E048165906A0F4B70180E2EB
S1130DA090E03BD13A94F5CFF50127FC859127FEDD
S1130DB081915F01B70190E030D131103A94F1E0B4
S1130DC04F1A51084114510479F7DEC0843611F0EA
S1130DD0893631F5F80127FF07C06081718182816E
S1130DE093810C5F1F4F08C060817181882777FD54
S1130DF08095982F0E5F1F4F2F76B22E97FF09C054
S1130E0090958095709561957F4F8F4F9F4F206887
S1130E10B22E2AE030E0A40132D1A82EA81843C093
S1130E20853729F42F7EB22E2AE030E025C0F22F38
S1130E30F97FBF2E8F36C1F018F4883579F0ADC034
S1130E40803719F0883721F0A8C02F2F2061B22EE7
S1130E50B4FE0DC08B2D8460B82E09C024FF0AC0D7
S1130E609F2F9660B92E06C028E030E005C020E12F
S1130E7030E002C020E132E0F801B7FE07C0608133
S1130E807181828193810C5F1F4F06C060817181E3
S1130E9080E090E00E5F1F4FA401F1D0A82EA818A7
S1130EA0FB2DFF77BF2EB6FE0BC02B2D2E7FA51476
S1130EB050F4B4FE0AC0B2FC08C02B2D2E7E05C02F
S1130EC07A2C2B2D03C07A2C01C0752C24FF0DC065
S1130ED0FE01EA0DF11D8081803311F4297E09C0E1
S1130EE022FF06C07394739404C0822F867809F09D
S1130EF0739423FD12C020FF06C05A2C731418F4F7
S1130F00530C5718732C731460F4B70180E290E00B
S1130F102C8783D073942C85F6CF731410F4371870
S1130F2001C0312C24FF11C0B70180E390E02C876D
S1130F3074D02C8522FF16C021FF03C088E590E001
S1130F4002C088E790E0B7010CC0822F867851F088
S1130F5021FD02C080E201C08BE227FD8DE2B701D2
S1130F6090E05BD0A51430F4B70180E390E055D055
S1130F705A94F8CFAA94F401EA0DF11D8081B701C7
S1130F8090E04BD0A110F6CF332009F45DCEB70129
S1130F9080E290E042D03A94F7CFF70186819781BE
S1130FA002C08FEF9FEF2C96E2E1E3C00F931F93F3
S1130FB0CF93DF93869F8001879F100D969F100D1E
S1130FC01124C80181DCEC01009721F0A80160E044
S1130FD070E011D0CE01DF91CF911F910F91089550
S1130FE0FC010590615070400110D8F780959095F0
S1130FF08E0F9F1F0895DC0101C06D934150504036
S1131000E0F70895FC016150704001900110D8F799
S1131010809590958E0F9F1F08950F931F93CF93E4
S1131020DF93182F092FEB018B8181FD03C08FEF14
S11310309FEF20C082FF10C04E815F812C813D81D3
S1131040421753077CF4E881F9819F012F5F3F4FDA
S113105039832883108306C0E885F985812F099593
S1131060892B29F72E813F812F5F3F4F3F832E83AA
S1131070812F902FDF91CF911F910F910895FA0145
S1131080AA27283051F1203181F1E8946F936E7FC3
S11310906E5F7F4F8F4F9F4FAF4FB1E03ED0B4E0B4
S11310A03CD0670F781F891F9A1FA11D680F791FF5
S11310B08A1F911DA11D6A0F711D811D911DA11D06
S11310C020D009F468943F912AE0269F1124301916
S11310D0305D3193DEF6CF010895462F4770405DB1
S11310E04193B3E00FD0C9F7F6CF462F4F70405D60
S11310F04A3318F0495D31FD4052419302D0A9F7BB
S1131100EACFB4E0A6959795879577956795BA95B4
S1131110C9F700976105710508959B01AC010A2E7A
S113112006945795479537952795BA95C9F7620F51
S1131130731F841F951FA01D08952F923F924F92F5
S11311405F926F927F928F929F92AF92BF92CF9253
S1131150DF92EF92FF920F931F93CF93DF93CDB75C
S1131160DEB7CA1BDB0B0FB6F894DEBF0FBECDBFD4
S113117009942A88398848885F846E847D848C84A5
S11311809B84AA84B984C884DF80EE80FD800C81AE
S11311901B81AA81B981CE0FD11D0FB6F894DEBF91
S10F11A00FBECDBFED010895F894FFCF01
S11311AC00008A0320000A0D507574206A6F79734D
S11311BC7469636B20696E2063656E74657220704C
S11311CC6F736974696F6E0A0D000A0D476574209C
S11311DC585F6D696E0A0D000A0D47657420585FDF
S11311EC6D61780A0D000A0D47657420595F6D69AD
S11311FC6E0A0D000A0D47657420595F6D61780AFB
S113120C0D005374617274696E6720584D454D20FE
S113121C746573742E2E2E0D00584D454D20657239
S113122C726F7220287772697465207068617365B7
S113123C293A206578745F72616D5B25645D203D8D
S113124C2025303258202873686F756C64206265D1
S113125C2025303258290D0A00584D454D20657211
S113126C726F7220287265616420706861736529DD
S113127C3A206578745F72616D5B25645D203D2056
S113128C25303258202873686F756C642062652091
S113129C25303258290D0A00584D454D207465737C
S11312AC7420636F6D706C65746564207769746801
S11312BC202564206572726F727320696E207772B8
S11312CC69746520706861736520616E642025649F
S11312DC206572726F727320696E2072656164206E
S11312EC70686173650D0A000D0A45787465726E39
S11312FC616C204D656D6F7279204578616D706CF1
S113130C650D0025642042797465206275666665F6
S113131C7220287374617274696E67206174203052
S113132C7825303458292066696C6C65642077699B
S113133C7468203027733A0D0A0025303258200087
S113134C0D0A25642042797465206275666665729F
S113135C20287374617274696E672061742030780C
S113136C25303458292066696C6C6564207769745F
S113137C6820696E6372656D656E74696E67206E44
S113138C756D626572733A0D0A00584D454D204FC8
S113139C4B0D00584D454D204641494C210D0048FC
S11313AC6561702046756C6C0D0048656170205445
S11313BC657374204F4B0D00486561702054657340
S11313CC74204661696C0D000A0D30782530327832
S11313DC000D0A0A404543484F204F4E0D0A000A9F
S11313EC0D79203D2025642C2078203D2025642C6B
S11313FC20556E7363616C65645F59203D202564D0
S113140C2C20556E63616C65645F58203D20256407
S105141C0000CA
S9030000FC
