:1000000037C0000050C000004EC000004CC00000CF
:100010004AC0000048C0000046C0000044C00000C4
:1000200042C0000040C000003EC000003CC00000D4
:100030003AC0000038C0000036C0000034C00000E4
:1000400032C0000030C000002EC000006FC00000B1
:100050002AC0000028C0000026C0000024C0000004
:1000600022C0000020C000001EC000001CC0000014
:1000700011241FBECFEFD4E0DEBFCDBF11E0A0E062
:10008000B1E0E6EDF4E002C005900D92A03CB107AE
:10009000D9F721E0A0ECB1E001C01D92AC3CB20761
:1000A000E1F726D016C2ACCF5D9BFECF8CB9089588
:1000B00059988FE189B910BC88E18AB98EEA80BD70
:1000C00060E070E084E590E045C008955F9BFECF5E
:1000D0008CB10895CF93DF93EC018881882329F0B8
:1000E0002196E2DF89918111FCCFDF91CF910895B4
:1000F000DFDF86E091E0EEDF8AE191E075D08CE40D
:1001000091E0E8DF81E08093C101579A789485E916
:1001100091E0E0DF84EB91E0DDDF8091C1018111AE
:10012000FFCFD4DF8093C001BFDFF7CF1F920F92C4
:100130000FB60F9211248F938091C101882321F073
:100140008CB18093C0018CB98F910F900FBE0F902E
:100150001F9018950F931F93CF93DF93EC018B01A2
:10016000009731F46115710519F480E090E037C013
:100170006EE070E081E090E064D0FC010097A9F3AC
:1001800080E883830115110571F01387028781E8E8
:1001900083838091C2019091C301892B21F4F09354
:1001A000C301E093C2012097C9F0D187C087838142
:1001B000826083838091C4019091C501892B71F481
:1001C000F093C501E093C4018091C6019091C701ED
:1001D000892B21F4F093C701E093C601CF01DF9191
:1001E000CF911F910F9108950F931F93CF93DF939A
:1001F000E091C401F091C501238121FF1BC0EC01F6
:1002000000E010E089916091C4017091C501DB01AB
:100210001896ED91FC911997882331F00995892B57
:1002200089F30FEF1FEFEECF8AE00995892B11F4C8
:10023000C80102C08FEF9FEFDF91CF911F910F9107
:1002400008950F931F93CF93DF93869F8001879F1D
:10025000100D969F100D1124C8010DD0EC010097D0
:1002600021F0A80160E070E02DD1CE01DF91CF91A7
:100270001F910F910895CF93DF938230910510F471
:1002800082E090E0E091CA01F091CB0120E030E003
:10029000A0E0B0E0309739F140815181481759070B
:1002A000B8F04817590771F482819381109729F0AB
:1002B00013969C938E9312972CC09093CB018093AE
:1002C000CA0127C02115310531F04217530718F034
:1002D000A901DB0101C0EF019A01BD01DF0102802C
:1002E000F381E02DD7CF21153105F9F0281B390B0B
:1002F0002430310580F48A819B816115710521F0DC
:10030000FB019383828304C09093CB018093CA0145
:10031000FE01329644C0FE01E20FF31F81939193D8
:1003200022503109398328833AC02091C801309185
:10033000C901232B41F42091020130910301309334
:10034000C9012093C80120910001309101012115BC
:10035000310541F42DB73EB740910401509105019C
:10036000241B350BE091C801F091C901E217F30796
:10037000A0F42E1B3F0B2817390778F0AC014E5F15
:100380005F4F2417350748F04E0F5F1F5093C90188
:100390004093C8018193919302C0E0E0F0E0CF0167
:1003A000DF91CF910895CF93DF93009709F487C031
:1003B000FC01329713821282C091CA01D091CB0105
:1003C000209781F420813181280F391F8091C80145
:1003D0009091C9018217930779F5F093C901E093D1
:1003E000C8016DC0DE0120E030E0AE17BF0750F459
:1003F00012964D915C9113979D014115510509F19C
:10040000DA01F3CFB383A28340815181840F951F1A
:100410008A179B0771F48D919C911197840F951FFA
:1004200002969183808312968D919C91139793836A
:1004300082832115310529F4F093CB01E093CA01A1
:100440003EC0D9011396FC93EE9312974D915D91A6
:10045000A40FB51FEA17FB0779F480819181840FFF
:10046000951F0296D90111969C938E938281938158
:1004700013969C938E931297E0E0F0E08A819B8123
:10048000009719F0FE01EC01F9CFCE010296288108
:100490003981820F931F2091C8013091C90128171B
:1004A000390769F4309729F41092CB011092CA01F0
:1004B00002C013821282D093C901C093C801DF9198
:1004C000CF910895DC0101C06D9341505040E0F799
:0604D0000895F894FFCF2F
:1004D6000000CC0120000D2E2E2E2E2E2E426F6FE8
:1004E60074696E672075702E0D004E4F544546494F
:1004F600434154494F4E3A207072696E74662829FA
:10050600206973204C494E4B454420746F20547823
:10051600206F6E205553415254210D00446F2079AF
:100526006F752077616E7420746F206563686F2025
:100536005278205541525420646174612075736964
:100546006E6720696E74657272757074733F0D0AFA
:100556002A456E7465722027792720746F2061639F
:1005660063657074002D3E696E7465727275707481
:10057600206F6E20527820697320454E41424C45CB
:10058600440D0A00404543484F204F4E0D0A0000D7
:00000001FF
