S01B00004C616245786330312D48656C6C6F55534152542E73726563C9
S113000037C0000050C000004EC000004CC00000CB
S11300104AC0000048C0000046C0000044C00000C0
S113002042C0000040C000003EC000003CC00000D0
S11300303AC0000038C0000036C0000034C00000E0
S113004032C0000030C000002EC000007CC00000A0
S11300502AC0000028C0000026C0000024C0000000
S113006022C0000020C000001EC000001CC0000010
S113007011241FBECFEFD4E0DEBFCDBF11E0A0E05E
S1130080B1E0E0EFF4E002C005900D92AC3DB107A1
S1130090D9F721E0ACEDB1E001C01D92A83EB20752
S11300A0E1F726D023C2ACCF5D9BFECF8CB9089577
S11300B059988FE189B910BC88E18AB98EEA80BD6C
S11300C060E070E084E590E052C008955F9BFECF4D
S11300D08CB10895CF93DF93EC018881882329F0B4
S11300E02196E2DF89918111FCCFDF91CF910895B0
S11300F0DFDF86E091E0EEDF8AE191E082D08CE4FC
S113010091E0E8DFE3DF91E0893709F090E0909334
S1130110DC01992349F081E08093DD01579A7894BA
S113012085E991E0D7DF03C084EB91E0D3DF81ED73
S113013091E0D0DF8091DD018111FFCFC7DF809393
S1130140DC01B2DFF7CF1F920F920FB60F9211248A
S11301508F938091DD01882321F08CB18093DC01A1
S11301608CB98F910F900FBE0F901F9018950F931D
S11301701F93CF93DF93EC018B01009731F461154A
S1130180710519F480E090E037C06EE070E081E022
S113019090E064D0FC010097A9F380E88383011503
S11301A0110571F01387028781E883838091DE0152
S11301B09091DF01892B21F4F093DF01E093DE01BC
S11301C02097C9F0D187C08783818260838380911F
S11301D0E0019091E101892B71F4F093E101E09346
S11301E0E0018091E2019091E301892B21F4F093E5
S11301F0E301E093E201CF01DF91CF911F910F91D1
S113020008950F931F93CF93DF93E091E001F09152
S1130210E101238121FF1BC0EC0100E010E0899182
S11302206091E0017091E101DB011896ED91FC9180
S11302301997882331F00995892B89F30FEF1FEF64
S1130240EECF8AE00995892B11F4C80102C08FEF23
S11302509FEFDF91CF911F910F9108950F931F93FB
S1130260CF93DF93869F8001879F100D969F100D7B
S11302701124C8010DD0EC01009721F0A80160E021
S113028070E02DD1CE01DF91CF911F910F91089590
S1130290CF93DF938230910510F482E090E0E091F7
S11302A0E601F091E70120E030E0A0E0B0E0309713
S11302B039F14081518148175907B8F04817590757
S11302C071F482819381109729F013969C938E93F5
S11302D012972CC09093E7018093E60127C0211563
S11302E0310531F04217530718F0A901DB0101C0B1
S11302F0EF019A01BD01DF010280F381E02DD7CF28
S113030021153105F9F0281B390B2430310580F40F
S11303108A819B816115710521F0FB01938382839E
S113032004C09093E7018093E601FE01329644C035
S1130330FE01E20FF31F8193919322503109398317
S113034028833AC02091E4013091E501232B41F444
S113035020910201309103013093E5012093E401DF
S113036020910001309101012115310541F42DB78F
S11303703EB74091040150910501241B350BE091D7
S1130380E401F091E501E217F307A0F42E1B3F0B03
S11303902817390778F0AC014E5F5F4F24173507F3
S11303A048F04E0F5F1F5093E5014093E4018193A1
S11303B0919302C0E0E0F0E0CF01DF91CF91089586
S11303C0CF93DF93009709F487C0FC01329713821F
S11303D01282C091E601D091E701209781F4208137
S11303E03181280F391F8091E4019091E501821732
S11303F0930779F5F093E501E093E4016DC0DE0124
S113040020E030E0AE17BF0750F412964D915C9196
S113041013979D014115510509F1DA01F3CFB38317
S1130420A28340815181840F951F8A179B0771F421
S11304308D919C911197840F951F029691838083CF
S113044012968D919C911397938382832115310584
S113045029F4F093E701E093E6013EC0D901139635
S1130460FC93EE9312974D915D91A40FB51FEA177B
S1130470FB0779F480819181840F951F0296D9013D
S113048011969C938E938281938113969C938E9361
S11304901297E0E0F0E08A819B81009719F0FE0159
S11304A0EC01F9CFCE01029628813981820F931F86
S11304B02091E4013091E5012817390769F4309758
S11304C029F41092E7011092E60102C0138212820D
S11304D0D093E501C093E401DF91CF910895DC014D
S11304E001C06D9341505040E0F70895F894FFCF58
S11304F00000E80120000D2E2E2E2E2E2E426F6FAE
S113050074696E672075702E0D004E4F5445464930
S1130510434154494F4E3A207072696E74662829DB
S1130520206973204C494E4B454420746F20547805
S1130530206F6E205553415254210D00446F207991
S11305406F752077616E7420746F206563686F2007
S11305505278205541525420646174612075736946
S11305606E6720696E74657272757074733F0D0ADC
S11305702A456E7465722027792720746F20616381
S113058063657074002D3E696E7465727275707463
S1130590206F6E20527820697320454E41424C45AD
S11305A0440D0A002D3E696E746572727570742074
S11305B06F6E2052782044495341424C45440D0A01
S10F05C000404543484F204F4E0D0A00F8
S9030000FC
