:1000000037C0000050C000004EC000004CC00000CF
:100010004AC0000048C0000046C0000044C00000C4
:1000200042C0000040C000003EC000003CC00000D4
:100030003AC0000038C0000036C0000034C00000E4
:1000400032C0000030C000002EC00000E9C0000037
:100050002AC0000028C0000026C0000024C0000004
:1000600022C0000020C000001EC000001CC0000014
:1000700011241FBECFEFD4E0DEBFCDBF12E0A0E061
:10008000B1E0ECE2FBE002C005900D92A030B107B8
:10009000D9F722E0A0E0B2E001C01D92AC30B20777
:1000A000E1F7B5D041C5ACCF80E885BF16BE10BE24
:1000B0000895CF92DF92EF92FF920F931F93CF9309
:1000C000DF9386E091E01BD1DD24DA9400E010E0BC
:1000D000C0E0D0E00F2EFDE1EF2EF1E0FF2EF02D7D
:1000E000FE01F85ED08220818D2D90E0332727FD20
:1000F000309528173907C1F020811F92DF92822F97
:10010000992787FD90959F932F93DF93CF93FF922D
:10011000EF92E4D00F5F1F4F8DB79EB708960FB6D2
:10012000F8949EBF0FBE8DBF2196DA94C11598E05A
:10013000D907B1F6E12CF12CC0E0D0E00F2EFDE59F
:10014000CF2EF1E0DF2EF02DFE01F85E20814C2F46
:100150004095842F90E0332727FD309528173907E5
:10016000C9F020811F924F93822F992787FD909588
:100170009F932F93DF93CF93DF92CF92AFD08FEFE8
:10018000E81AF80A8DB79EB708960FB6F8949EBF86
:100190000FBE8DBF2196C11598E0D907A9F6FF9231
:1001A000EF921F930F938CE991E09F938F9396D0DA
:1001B0000F900F900F900F900F900F90DF91CF91B5
:1001C0001F910F91FF90EF90DF90CF9008955D9B6E
:1001D000FECF8CB9089559988FE189B910BC88E198
:1001E0008AB98EEA80BD60E070E087EE90E02CC0B6
:1001F0000895CF93DF93EC018881882329F021961D
:10020000E6DF89918111FCCFDF91CF910895E3DF83
:100210008CEE91E0EEDF48DF4CDF80E090E0089567
:100220001F920F920FB60F9211248F9380910102AB
:10023000882321F08CB1809300028CB98F910F90AC
:100240000FBE0F901F9018950F931F93CF93DF93BE
:10025000EC018B01009731F46115710519F480E010
:1002600090E037C06EE070E081E090E038D2FC01B1
:100270000097A9F380E883830115110571F01387B6
:10028000028781E883838091020290910302892B87
:1002900021F4F0930302E09302022097C9F0D18782
:1002A000C0878381826083838091040290910502DC
:1002B000892B71F4F0930502E09304028091060209
:1002C00090910702892B21F4F0930702E093060234
:1002D000CF01DF91CF911F910F910895A0E0B0E081
:1002E000E3E7F1E0FAC3FE01359661917191AF0148
:1002F00080910402909105022FD0E2E00AC40F938E
:100300001F93CF93DF93E0910402F09105022381C4
:1003100021FF1BC0EC0100E010E089916091040214
:1003200070910502DB011896ED91FC9119978823D5
:1003300031F00995892B89F30FEF1FEFEECF8AE09B
:100340000995892B11F4C80102C08FEF9FEFDF914F
:10035000CF911F910F910895ACE0B0E0E1EBF1E097
:10036000ACC37C016B018A01FC0117821682838178
:1003700081FFB0C1CE0101964C01F7019381F601D6
:1003800093FD859193FF81916F01882309F49EC1AC
:10039000853239F493FD859193FF81916F01853208
:1003A00021F4B70190E0F9D2E8CF512C312C20E0B4
:1003B0002032A0F48B3269F030F4803259F083326D
:1003C00069F420612CC08D3239F0803339F421601A
:1003D00026C02260246023C0286021C027FD27C0DA
:1003E00030ED380F3A3078F426FF06C0FAE05F9E11
:1003F000300D1124532E13C08AE0389E300D112485
:10040000332E20620CC08E3221F426FD5FC12064A1
:1004100006C08C3611F4206802C0883641F4F6011B
:1004200093FD859193FF81916F018111C1CF982F29
:100430009F7D9554933028F40C5F1F4FFFE3F983A1
:100440000DC0833631F0833771F0833509F057C022
:1004500021C0F801808189830E5F1F4F442443949B
:10046000512C540114C03801F2E06F0E711CF801D8
:10047000A080B18026FF03C0652D70E002C06FEF41
:100480007FEFC5012C877ED22C0183012C852F772D
:10049000222E16C03801F2E06F0E711CF801A08008
:1004A000B18026FF03C0652D70E002C06FEF7FEFC3
:1004B000C5012C8755D22C012C852068222E830162
:1004C00023FC19C0832D90E048165906A0F4B7010B
:1004D00080E290E062D23A94F5CFF50127FC859155
:1004E00027FE81915F01B70190E057D231103A9415
:1004F000F1E04F1A51084114510479F7DEC08436F7
:1005000011F0893631F5F80127FF07C0608171814C
:10051000828193810C5F1F4F08C0608171818827A1
:1005200077FD8095982F0E5F1F4F2F76B22E97FF85
:1005300009C090958095709561957F4F8F4F9F4F23
:100540002068B22E2AE030E0A40159D2A82EA818C3
:1005500043C0853729F42F7EB22E2AE030E025C033
:10056000F22FF97FBF2E8F36C1F018F4883579F05D
:10057000ADC0803719F0883721F0A8C02F2F206137
:10058000B22EB4FE0DC08B2D8460B82E09C024FF9E
:100590000AC09F2F9660B92E06C028E030E005C043
:1005A00020E130E002C020E132E0F801B7FE07C0F0
:1005B00060817181828193810C5F1F4F06C06081D1
:1005C000718180E090E00E5F1F4FA40118D2A82E29
:1005D000A818FB2DFF77BF2EB6FE0BC02B2D2E7F4C
:1005E000A51450F4B4FE0AC0B2FC08C02B2D2E7E18
:1005F00005C07A2C2B2D03C07A2C01C0752C24FF4A
:100600000DC0FE01EA0DF11D8081803311F4297EB9
:1006100009C022FF06C07394739404C0822F8678A9
:1006200009F0739423FD12C020FF06C05A2C7314E6
:1006300018F4530C5718732C731460F4B70180E24C
:1006400090E02C87AAD173942C85F6CF731410F404
:10065000371801C0312C24FF11C0B70180E390E0AE
:100660002C879BD12C8522FF16C021FF03C088E573
:1006700090E002C088E790E0B7010CC0822F867836
:1006800051F021FD02C080E201C08BE227FD8DE226
:10069000B70190E082D1A51430F4B70180E390E077
:1006A0007CD15A94F8CFAA94F401EA0DF11D80810F
:1006B000B70190E072D1A110F6CF332009F45DCEDE
:1006C000B70180E290E069D13A94F7CFF7018681D3
:1006D000978102C08FEF9FEF2C96E2E10AC20F9341
:1006E0001F93CF93DF93869F8001879F100D969F66
:1006F000100D1124C8010DD0EC01009721F0A801C4
:1007000060E070E038D1CE01DF91CF911F910F9161
:100710000895CF93DF938230910510F482E090E04A
:10072000E0910A02F0910B0220E030E0A0E0B0E09E
:10073000309739F14081518148175907B8F048176F
:10074000590771F482819381109729F013969C9335
:100750008E9312972CC090930B0280930A0227C0AD
:100760002115310531F04217530718F0A901DB01BB
:1007700001C0EF019A01BD01DF010280F381E02D8C
:10078000D7CF21153105F9F0281B390B243031055D
:1007900080F48A819B816115710521F0FB019383AF
:1007A000828304C090930B0280930A02FE0132966A
:1007B00044C0FE01E20FF31F81939193225031094F
:1007C000398328833AC02091080230910902232BF3
:1007D00041F42091020130910301309309022093EA
:1007E000080220910001309101012115310541F4E9
:1007F0002DB73EB74091040150910501241B350BE4
:10080000E0910802F0910902E217F307A0F42E1B11
:100810003F0B2817390778F0AC014E5F5F4F241764
:10082000350748F04E0F5F1F5093090240930802AE
:100830008193919302C0E0E0F0E0CF01DF91CF918E
:100840000895CF93DF93009709F487C0FC01329796
:1008500013821282C0910A02D0910B02209781F478
:1008600020813181280F391F80910802909109025F
:100870008217930779F5F0930902E09308026DC09F
:10088000DE0120E030E0AE17BF0750F412964D9124
:100890005C9113979D014115510509F1DA01F3CFE0
:1008A000B383A28340815181840F951F8A179B07D0
:1008B00071F48D919C911197840F951F02969183ED
:1008C000808312968D919C91139793838283211537
:1008D000310529F4F0930B02E0930A023EC0D901DE
:1008E0001396FC93EE9312974D915D91A40FB51F53
:1008F000EA17FB0779F480819181840F951F029696
:10090000D90111969C938E938281938113969C9327
:100910008E931297E0E0F0E08A819B81009719F0B6
:10092000FE01EC01F9CFCE01029628813981820FB8
:10093000931F20910802309109022817390769F4A2
:10094000309729F410920B0210920A0202C013820F
:100950001282D0930902C0930802DF91CF910895CB
:10096000FC010590615070400110D8F7809590957A
:100970008E0F9F1F0895DC0101C06D9341505040C0
:10098000E0F70895FC016150704001900110D8F724
:10099000809590958E0F9F1F08950F931F93CF936F
:1009A000DF93182F092FEB018B8181FD03C08FEF9F
:1009B0009FEF20C082FF10C04E815F812C813D815E
:1009C000421753077CF4E881F9819F012F5F3F4F65
:1009D00039832883108306C0E885F985812F09951E
:1009E000892B29F72E813F812F5F3F4F3F832E8335
:1009F000812F902FDF91CF911F910F910895FA01D0
:100A0000AA27283051F1203181F1E8946F936E7F4D
:100A10006E5F7F4F8F4F9F4FAF4FB1E03ED0B4E03E
:100A20003CD0670F781F891F9A1FA11D680F791F7F
:100A30008A1F911DA11D6A0F711D811D911DA11D90
:100A400020D009F468943F912AE0269F11243019A0
:100A5000305D3193DEF6CF010895462F4770405D3B
:100A60004193B3E00FD0C9F7F6CF462F4F70405DEA
:100A70004A3318F0495D31FD4052419302D0A9F745
:100A8000EACFB4E0A6959795879577956795BA953F
:100A9000C9F700976105710508959B01AC010A2E05
:100AA00006945795479537952795BA95C9F7620FDC
:100AB000731F841F951FA01D08952F923F924F9280
:100AC0005F926F927F928F929F92AF92BF92CF92DE
:100AD000DF92EF92FF920F931F93CF93DF93CDB7E7
:100AE000DEB7CA1BDB0B0FB6F894DEBF0FBECDBF5F
:100AF00009942A88398848885F846E847D848C8430
:100B00009B84AA84B984C884DF80EE80FD800C8138
:100B10001B81AA81B981CE0FD11D0FB6F894DEBF1B
:0C0B20000FBECDBFED010895F894FFCF8B
:100B2C0000000C0220005374617274696E672058C7
:100B3C004D454D20746573742E2E2E0D00584D4569
:100B4C004D206572726F72202877726974652070FF
:100B5C0068617365293A206578745F72616D5B25F5
:100B6C00645D203D2025303258202873686F756CE9
:100B7C00642062652025303258290D0A00584D45F5
:100B8C004D206572726F72202872656164207068E6
:100B9C00617365293A206578745F72616D5B2564B9
:100BAC005D203D2025303258202873686F756C64A9
:100BBC002062652025303258290D0A00584D454DCC
:100BCC00207465737420636F6D706C65746564203C
:100BDC0077697468202564206572726F727320695E
:100BEC006E20777269746520706861736520616E20
:100BFC0064202564206572726F727320696E207296
:100C0C006561642070686173650D0A000D2E2E2ECF
:100C1C002E2E2E426F6F74696E672075702E0D002C
:00000001FF
